:020000040000FA
:1000000005100130860085143520851035200A281A
:040010000034003484
:0C00140007309F0003138316860185014E
:1000200083128510051005100130860085143520D7
:10003000851035200C30860085143520851035203C
:100040003C30860085143520851035203F2038212E
:100050003821982038213821F420382138212628C9
:1000600085143520851035200800A0010A30A10034
:100070005030A000A00B3A28A10B3828080005102A
:10008000352085308600302005143520423086002A
:10009000302061308600302072308600302062309F
:1000A000860030206130860030207230860030209B
:1000B00061308600302005103520C03086003020A9
:1000C000051435204C308600302061308600302009
:1000D0006230860030206F3086003020723086001B
:1000E0003020643086003020653086003020473074
:1000F000860030206F30860030206E308600302041
:100100006330860030206130860030206C308600FD
:100110003020763086003020653086003020733005
:100120008600302005103520813086003020080000
:1001300005103520853086003020051435204D30DF
:100140008600302049308600302043308600302041
:100150005230860030204F308600302053308600E9
:10016000302020308600302005103520C030860039
:1001700030200514352020308600302020308600C5
:1001800030202030860030202030860030204D3056
:1001900086003020543086003020413086003020E8
:1001A0002030860030202030860030203730860016
:1001B0003020303086003020303086003020203033
:1001C000860030202030860030202030860030200D
:1001D0002030860030202030860030200510352069
:1001E00081308600302008000510352085308600DB
:1001F0003020051435204D308600302075308600C3
:100200003020633086003020683086003020613036
:100210008600302073308600302005103520C43031
:10022000860030200514352047308600302072309B
:100230008600302061308600302063308600302018
:1002400069308600302061308600302073308600AF
:1002500030202030860030203A308600302029308F
:1002600086003020051035208130860030200800BF
:100270001E30A2003630A3003230A400A40B3E2969
:0A028000A30B3C29A20B3A29080049
:02400E00393F38
:00000001FF
