:020000040000FA
:1000000005100130860085142021851020210A2842
:040010000034003484
:0C00140007309F0003138316860185014E
:1000200083128510051005100130860085142021EB
:10003000851020210C308600851420218510202178
:100040003C30860085142021851020212A21F327A9
:100050008321F327DC21F3273522F3278E22F32790
:10006000E722F3274023F3279923F3274B24F32791
:10007000A724F3270625F3276825F327CD25F327A3
:100080003526F327A026F3270E27F3277F277F2780
:100090007F277F277F277F277F277F277F277F2730
:1000A0007F277F277F277F277F277F277F277F2720
:1000B0007F277F277F277F277F277F277F277F2710
:1000C0007F277F277F277F277F277F277F277F2700
:1000D0007F277F277F277F277F277F277F277F27F0
:1000E0007F277F277F277F277F277F277F277F27E0
:1000F0007F277F277F277F277F277F277F277F27D0
:100100007F277F277F277F277F277F277F277F27BF
:100110007F277F277F277F277F277F277F277F27AF
:100120007F277F277F277F277F277F277F277F279F
:100130007F277F277F277F277F277F277F277F278F
:100140007F277F277F277F277F277F277F277F277F
:100150007F277F277F277F277F277F277F277F276F
:100160007F277F277F277F277F277F277F277F275F
:100170007F277F277F277F277F277F277F277F274F
:100180007F277F277F277F277F277F277F277F273F
:100190007F277F277F277F277F277F277F277F272F
:1001A0007F277F277F277F277F277F277F277F271F
:1001B0007F277F277F277F277F277F277F277F270F
:1001C0007F277F277F277F277F277F277F277F27FF
:1001D0007F277F277F277F277F277F277F277F27EF
:1001E0007F277F277F277F277F277F277F277F27DF
:1001F0007F277F277F277F277F277F277F277F27CF
:100200007F277F277F277F277F277F277F277F27BE
:100210007F277F277F277F277F277F277F277F27AE
:100220007F277F277F277F277F277F277F277F279E
:100230007F277F272628851420218510202108006C
:10024000A0010A30A1005030A000A00B2529A10B6D
:100250002329080005102021903086001B21051459
:100260002021423086001B21613086001B21723024
:1002700086001B21623086001B21613086001B2115
:10028000723086001B21613086001B210510202161
:10029000D03086001B21051420214C3086001B2104
:1002A000613086001B21623086001B216F30860082
:1002B0001B21723086001B21643086001B216530B3
:1002C00086001B21473086001B216F3086001B21D2
:1002D0006E3086001B21633086001B216130860052
:1002E0001B216C3086001B21763086001B21653077
:1002F00086001B21733086001B21051020218130D0
:1003000086001B210800051020218F3086001B214C
:1003100005142021423086001B21613086001B21FC
:10032000723086001B21623086001B2161308600FE
:100330001B21723086001B21613086001B210510B5
:100340002021CF3086001B21051420214C3086004F
:100350001B21613086001B21623086001B216F301B
:1003600086001B21723086001B21643086001B2111
:10037000653086001B21473086001B216F308600C8
:100380001B216E3086001B21633086001B216130EB
:1003900086001B216C3086001B21763086001B21D5
:1003A000653086001B21733086001B21051020213B
:1003B000813086001B210800051020218E30860028
:1003C0001B2105142021423086001B21613086004C
:1003D0001B21723086001B21623086001B21613098
:1003E00086001B21723086001B21613086001B2194
:1003F00005102021CE3086001B21051420214C3011
:1004000086001B21613086001B21623086001B2183
:100410006F3086001B21723086001B2164308600FD
:100420001B21653086001B21473086001B216F3061
:1004300086001B216E3086001B21633086001B2145
:10044000613086001B216C3086001B2176308600CF
:100450001B21653086001B21733086001B2105108F
:100460002021813086001B210800051020218D30BD
:1004700086001B2105142021423086001B2161309B
:1004800086001B21723086001B21623086001B21F2
:10049000613086001B21723086001B21613086008E
:1004A0001B2105102021CD3086001B2105142021A1
:1004B0004C3086001B21613086001B216230860093
:1004C0001B216F3086001B21723086001B21643097
:1004D00086001B21653086001B21473086001B21CA
:1004E0006F3086001B216E3086001B216330860032
:1004F0001B21613086001B216C3086001B21763069
:1005000086001B21653086001B21733086001B216D
:1005100005102021813086001B21080005102021B4
:100520008C3086001B2105142021423086001B21BF
:10053000613086001B21723086001B2162308600EC
:100540001B21613086001B21723086001B21613027
:1005500086001B2105102021CC3086001B210514AC
:1005600020214C3086001B21613086001B21623027
:1005700086001B216F3086001B21723086001B21F4
:10058000643086001B21653086001B2147308600C1
:100590001B216F3086001B216E3086001B216330CB
:1005A00086001B21613086001B216C3086001B21D8
:1005B000763086001B21653086001B217330860053
:1005C0001B2105102021813086001B210800051009
:1005D00020218B3086001B2105142021423086000B
:1005E0001B21613086001B21723086001B21623086
:1005F00086001B21613086001B21723086001B2182
:10060000613086001B2105102021CB3086001B2184
:10061000051420214C3086001B21613086001B21EF
:10062000623086001B216F3086001B2172308600ED
:100630001B21643086001B21653086001B2147305A
:1006400086001B216F3086001B216E3086001B2127
:10065000633086001B21613086001B216C308600D0
:100660001B21763086001B21653086001B217330EC
:1006700086001B2105102021813086001B210800E7
:10068000051020218A3086001B21051420214230CC
:1006900086001B21613086001B21723086001B21E1
:1006A000623086001B21613086001B21723086007B
:1006B0001B21613086001B2105102021CA308600D5
:1006C0001B21051420214C3086001B21613086003F
:1006D0001B21623086001B216F3086001B21723087
:1006E00086001B21643086001B21653086001B219B
:1006F000473086001B216F3086001B216E3086003C
:100700001B21633086001B21613086001B216C3069
:1007100086001B21763086001B21653086001B2158
:10072000733086001B2105102021813086001B219B
:10073000080005102021893086001B210514202186
:10074000423086001B21613086001B2172308600FA
:100750001B21623086001B21613086001B21723014
:1007600086001B21613086001B2105102021C93025
:1007700086001B21051420214C3086001B2161308E
:1007800086001B21623086001B216F3086001B21F2
:10079000723086001B21643086001B216530860084
:1007A0001B21473086001B216F3086001B216E30D5
:1007B00086001B21633086001B21613086001B21CF
:1007C0006C3086001B21763086001B216530860048
:1007D0001B21733086001B210510202181308600EB
:1007E0001B21080005102021873086001B210514DD
:1007F0002021423086001B21613086001B2172308F
:1008000086001B21623086001B21613086001B217F
:10081000723086001B21613086001B2105102021CB
:10082000C73086001B21051420214C3086001B2177
:10083000613086001B21623086001B216F308600EC
:100840001B21723086001B21643086001B2165301D
:1008500086001B21473086001B216F3086001B213C
:100860006E3086001B21633086001B2161308600BC
:100870001B216C3086001B21763086001B216530E1
:1008800086001B21733086001B210510202181303A
:1008900086001B21080005102021883086001B21BE
:1008A00005142021423086001B21613086001B2167
:1008B000723086001B21623086001B216130860069
:1008C0001B21723086001B21613086001B212030E5
:1008D00086001B2105102021C83086001B2105142D
:1008E00020214C3086001B21613086001B216230A4
:1008F00086001B216F3086001B21723086001B2171
:10090000643086001B21653086001B21473086003D
:100910001B216F3086001B216E3086001B21633047
:1009200086001B21613086001B216C3086001B2154
:10093000763086001B21653086001B2173308600CF
:100940001B2105102021813086001B210800051085
:100950002021873086001B2105142021423086008B
:100960001B21613086001B21723086001B21623002
:1009700086001B21613086001B21723086001B21FE
:10098000613086001B21203086001B21203086002C
:100990001B2105102021C73086001B2105142021B2
:1009A0004C3086001B21613086001B21623086009E
:1009B0001B216F3086001B21723086001B216430A2
:1009C00086001B21653086001B21473086001B21D5
:1009D0006F3086001B216E3086001B21633086003D
:1009E0001B21613086001B216C3086001B21763074
:1009F00086001B21653086001B21733086001B2179
:100A000005102021813086001B21080005102021BF
:100A1000863086001B2105142021423086001B21D0
:100A2000613086001B21723086001B2162308600F7
:100A30001B21613086001B21723086001B21613032
:100A400086001B21203086001B21203086001B21C0
:100A5000203086001B2105102021C63086001B2176
:100A6000051420214C3086001B21613086001B219B
:100A7000623086001B216F3086001B217230860099
:100A80001B21643086001B21653086001B21473006
:100A900086001B216F3086001B216E3086001B21D3
:100AA000633086001B21613086001B216C3086007C
:100AB0001B21763086001B21653086001B21733098
:100AC00086001B2105102021813086001B21080093
:100AD00005102021853086001B210514202142307D
:100AE00086001B21613086001B21723086001B218D
:100AF000623086001B21613086001B217230860027
:100B00001B21613086001B21203086001B212030F4
:100B100086001B21203086001B21203086001B21EF
:100B200005102021C53086001B21051420214C30E2
:100B300086001B21613086001B21623086001B214C
:100B40006F3086001B21723086001B2164308600C6
:100B50001B21653086001B21473086001B216F302A
:100B600086001B216E3086001B21633086001B210E
:100B7000613086001B216C3086001B217630860098
:100B80001B21653086001B21733086001B21051058
:100B90002021813086001B2108000510202184308F
:100BA00086001B2105142021423086001B21613064
:100BB00086001B21723086001B21623086001B21BB
:100BC000613086001B21723086001B216130860057
:100BD0001B21203086001B21203086001B21203065
:100BE00086001B21203086001B21203086001B211F
:100BF00005102021C43086001B21051420214C3013
:100C000086001B21613086001B21623086001B217B
:100C10006F3086001B21723086001B2164308600F5
:100C20001B21653086001B21473086001B216F3059
:100C300086001B216E3086001B21633086001B213D
:100C4000613086001B216C3086001B2176308600C7
:100C50001B21653086001B21733086001B21051087
:100C60002021813086001B210800051020218330BF
:100C700086001B2105142021423086001B21613093
:100C800086001B21723086001B21623086001B21EA
:100C9000613086001B21723086001B216130860086
:100CA0001B21203086001B21203086001B21203094
:100CB00086001B21203086001B21203086001B214E
:100CC000203086001B2105102021C33086001B2107
:100CD000051420214C3086001B21613086001B2129
:100CE000623086001B216F3086001B217230860027
:100CF0001B21643086001B21653086001B21473094
:100D000086001B216F3086001B216E3086001B2160
:100D1000633086001B21613086001B216C30860009
:100D20001B21763086001B21653086001B21733025
:100D300086001B2105102021813086001B21080020
:100D400005102021823086001B210514202142300D
:100D500086001B21613086001B21723086001B211A
:100D6000623086001B21613086001B2172308600B4
:100D70001B21613086001B21203086001B21203082
:100D800086001B21203086001B21203086001B217D
:100D9000203086001B21203086001B212030860059
:100DA0001B2105102021C23086001B2105142021A3
:100DB0004C3086001B21613086001B21623086008A
:100DC0001B216F3086001B21723086001B2164308E
:100DD00086001B21653086001B21473086001B21C1
:100DE0006F3086001B216E3086001B216330860029
:100DF0001B21613086001B216C3086001B21763060
:100E000086001B21653086001B21733086001B2164
:100E100005102021813086001B21080005102021AB
:100E2000813086001B2105142021423086001B21C1
:100E3000613086001B21723086001B2162308600E3
:100E40001B21613086001B21723086001B2161301E
:100E500086001B21203086001B21203086001B21AC
:100E6000203086001B21203086001B212030860088
:100E70001B21203086001B21203086001B212030C2
:100E800086001B2105102021C13086001B2105147E
:100E900020214C3086001B21613086001B216230EE
:100EA00086001B216F3086001B21723086001B21BB
:100EB000643086001B21653086001B214730860088
:100EC0001B216F3086001B216E3086001B21633092
:100ED00086001B21613086001B216C3086001B219F
:100EE000763086001B21653086001B21733086001A
:100EF0001B2105102021813086001B2108000510D0
:100F00002021803086001B210514202142308600DC
:100F10001B21613086001B21723086001B2162304C
:100F200086001B21613086001B21723086001B2148
:100F3000613086001B21203086001B212030860076
:100F40001B21203086001B21203086001B212030F1
:100F500086001B21203086001B21203086001B21AB
:100F6000203086001B21203086001B210510202107
:100F7000C03086001B21051420214C3086001B2127
:100F8000613086001B21623086001B216F30860095
:100F90001B21723086001B21643086001B216530C6
:100FA00086001B21473086001B216F3086001B21E5
:100FB0006E3086001B21633086001B216130860065
:100FC0001B216C3086001B21763086001B2165308A
:100FD00086001B21733086001B21051020218130E3
:100FE00086001B2108001E30A2003630A3003230DC
:100FF000A400A40BF92FA30BF72FA20BF52F0800C9
:02400E00393F38
:00000001FF
